{"abi":[{"type":"constructor","inputs":[{"name":"rescueDelay","type":"uint32","internalType":"uint32"},{"name":"accessToken","type":"address","internalType":"contract IERC20"}],"stateMutability":"nonpayable"},{"type":"function","name":"FACTORY","inputs":[],"outputs":[{"name":"","type":"address","internalType":"address"}],"stateMutability":"view"},{"type":"function","name":"PROXY_BYTECODE_HASH","inputs":[],"outputs":[{"name":"","type":"bytes32","internalType":"bytes32"}],"stateMutability":"view"},{"type":"function","name":"RESCUE_DELAY","inputs":[],"outputs":[{"name":"","type":"uint256","internalType":"uint256"}],"stateMutability":"view"},{"type":"function","name":"cancel","inputs":[{"name":"immutables","type":"tuple","internalType":"struct IBaseEscrow.Immutables","components":[{"name":"orderHash","type":"bytes32","internalType":"bytes32"},{"name":"hashlock","type":"bytes32","internalType":"bytes32"},{"name":"maker","type":"uint256","internalType":"Address"},{"name":"taker","type":"uint256","internalType":"Address"},{"name":"token","type":"uint256","internalType":"Address"},{"name":"amount","type":"uint256","internalType":"uint256"},{"name":"safetyDeposit","type":"uint256","internalType":"uint256"},{"name":"timelocks","type":"uint256","internalType":"Timelocks"}]}],"outputs":[],"stateMutability":"nonpayable"},{"type":"function","name":"publicWithdraw","inputs":[{"name":"secret","type":"bytes32","internalType":"bytes32"},{"name":"immutables","type":"tuple","internalType":"struct IBaseEscrow.Immutables","components":[{"name":"orderHash","type":"bytes32","internalType":"bytes32"},{"name":"hashlock","type":"bytes32","internalType":"bytes32"},{"name":"maker","type":"uint256","internalType":"Address"},{"name":"taker","type":"uint256","internalType":"Address"},{"name":"token","type":"uint256","internalType":"Address"},{"name":"amount","type":"uint256","internalType":"uint256"},{"name":"safetyDeposit","type":"uint256","internalType":"uint256"},{"name":"timelocks","type":"uint256","internalType":"Timelocks"}]}],"outputs":[],"stateMutability":"nonpayable"},{"type":"function","name":"rescueFunds","inputs":[{"name":"token","type":"address","internalType":"address"},{"name":"amount","type":"uint256","internalType":"uint256"},{"name":"immutables","type":"tuple","internalType":"struct IBaseEscrow.Immutables","components":[{"name":"orderHash","type":"bytes32","internalType":"bytes32"},{"name":"hashlock","type":"bytes32","internalType":"bytes32"},{"name":"maker","type":"uint256","internalType":"Address"},{"name":"taker","type":"uint256","internalType":"Address"},{"name":"token","type":"uint256","internalType":"Address"},{"name":"amount","type":"uint256","internalType":"uint256"},{"name":"safetyDeposit","type":"uint256","internalType":"uint256"},{"name":"timelocks","type":"uint256","internalType":"Timelocks"}]}],"outputs":[],"stateMutability":"nonpayable"},{"type":"function","name":"withdraw","inputs":[{"name":"secret","type":"bytes32","internalType":"bytes32"},{"name":"immutables","type":"tuple","internalType":"struct IBaseEscrow.Immutables","components":[{"name":"orderHash","type":"bytes32","internalType":"bytes32"},{"name":"hashlock","type":"bytes32","internalType":"bytes32"},{"name":"maker","type":"uint256","internalType":"Address"},{"name":"taker","type":"uint256","internalType":"Address"},{"name":"token","type":"uint256","internalType":"Address"},{"name":"amount","type":"uint256","internalType":"uint256"},{"name":"safetyDeposit","type":"uint256","internalType":"uint256"},{"name":"timelocks","type":"uint256","internalType":"Timelocks"}]}],"outputs":[],"stateMutability":"nonpayable"},{"type":"event","name":"Callersni","inputs":[{"name":"caller","type":"address","indexed":true,"internalType":"address"},{"name":"cal","type":"address","indexed":false,"internalType":"address"}],"anonymous":false},{"type":"event","name":"EscrowCancelled","inputs":[],"anonymous":false},{"type":"event","name":"EscrowWithdrawal","inputs":[{"name":"secret","type":"bytes32","indexed":false,"internalType":"bytes32"}],"anonymous":false},{"type":"event","name":"FundsRescued","inputs":[{"name":"token","type":"address","indexed":false,"internalType":"address"},{"name":"amount","type":"uint256","indexed":false,"internalType":"uint256"}],"anonymous":false},{"type":"error","name":"InvalidCaller","inputs":[]},{"type":"error","name":"InvalidImmutables","inputs":[]},{"type":"error","name":"InvalidSecret","inputs":[]},{"type":"error","name":"InvalidTime","inputs":[]},{"type":"error","name":"NativeTokenSendingFailure","inputs":[]},{"type":"error","name":"SafeTransferFailed","inputs":[]}],"bytecode":{"object":"0x6101003461010f57601f610c2938819003918201601f19168301916001600160401b0383118484101761011357808492604094855283398101031261010f5780519063ffffffff821680920361010f5760200151906001600160a01b038216820361010f573360c05260a0526080526e5af43d82803e903d91602b57fd5bf360205230601152763d602d80600a3d3981f3363d3d373d3d3d363d730000003060881c175f52603760092060e052604051610b019081610128823960805181610621015260a05181818160a30152610363015260c05181818161015b0152818161032d015281816104e60152610808015260e051818181610131015281816103030152818161047901526107de0152f35b5f80fd5b634e487b7160e01b5f52604160045260245ffdfe6080604090808252600480361015610015575f80fd5b60e05f35811c9283630af97558146105ca57508263233057031461050a5782632dd310001461049c57826334862b6a146104445782634649088b1461025d5750816390d3252f146100ca575063f56cd69c1461006f575f80fd5b346100c6575f7ffffffffffffffffffffffffffffffffffffffffffffffffffffffffffffffffc3601126100c657602090517f00000000000000000000000000000000000000000000000000000000000000008152f35b5f80fd5b82346100c657610100807ffffffffffffffffffffffffffffffffffffffffffffffffffffffffffffffffc3601126100c65773ffffffffffffffffffffffffffffffffffffffff91826055600b82606435169485330361022d575b845181898237208451907f00000000000000000000000000000000000000000000000000000000000000008683015260208201527f000000000000000000000000000000000000000000000000000000000000000081520160ff8153201630036102055761019460e435610930565b42106101dd576101ab60a435836084358616610977565b6101b760c43533610a37565b7f6e3be9294e58d10b9c8053cfd5e09871b67e442fe394d6b0870d336b9df984a95f80a1005b8390517f6f7eac26000000000000000000000000000000000000000000000000000000008152fd5b8390517fa269484a000000000000000000000000000000000000000000000000000000008152fd5b84518681527f322941fc1a00bb44398af8e423a1eb861592f103c27c0d888a1dcffeec1a259360203392a2610125565b8390346100c6576101407ffffffffffffffffffffffffffffffffffffffffffffffffffffffffffffffffc3601126100c65782359273ffffffffffffffffffffffffffffffffffffffff90818516928386036100c65760243592610100807fffffffffffffffffffffffffffffffffffffffffffffffffffffffffffffffbc3601126100c657600b6055918360a43516803303610413575b5088518160448237208851907f00000000000000000000000000000000000000000000000000000000000000008a83015260208201527f000000000000000000000000000000000000000000000000000000000000000081520160ff8153201630036103eb5761012435901c7f00000000000000000000000000000000000000000000000000000000000000000142106103c457506103b7817fc4474c2790e13695f6d2b6f1d8e164290b55370f87a542fd7711abe0a1bf40ac953390610977565b82519182526020820152a1005b83517f6f7eac26000000000000000000000000000000000000000000000000000000008152fd5b5083517fa269484a000000000000000000000000000000000000000000000000000000008152fd5b89519081527f322941fc1a00bb44398af8e423a1eb861592f103c27c0d888a1dcffeec1a259360203392a28a6102f5565b83346100c6575f7ffffffffffffffffffffffffffffffffffffffffffffffffffffffffffffffffc3601126100c657602090517f00000000000000000000000000000000000000000000000000000000000000008152f35b83346100c6575f7ffffffffffffffffffffffffffffffffffffffffffffffffffffffffffffffffc3601126100c6576020905173ffffffffffffffffffffffffffffffffffffffff7f0000000000000000000000000000000000000000000000000000000000000000168152f35b8390346100c65761051a366106e5565b92909173ffffffffffffffffffffffffffffffffffffffff606085013516803303610599575b5063ffffffff8185013580921c9160801c16810180911161056d5742106101dd5761056b83836107b2565b005b6011857f4e487b71000000000000000000000000000000000000000000000000000000005f525260245ffd5b82519081527f322941fc1a00bb44398af8e423a1eb861592f103c27c0d888a1dcffeec1a259360203392a285610540565b84346100c6576105d9366106e5565b9390927f70a08231000000000000000000000000000000000000000000000000000000008152338682015260208160248173ffffffffffffffffffffffffffffffffffffffff7f0000000000000000000000000000000000000000000000000000000000000000165afa9081156106db575f916106a9575b50156106815763ffffffff8185013580921c9160a01c16810180911161056d5742106101dd5761056b83836107b2565b8482517f48f5c3ed000000000000000000000000000000000000000000000000000000008152fd5b90506020813d6020116106d3575b816106c460209383610744565b810103126100c6575186610651565b3d91506106b7565b83513d5f823e3d90fd5b906101207ffffffffffffffffffffffffffffffffffffffffffffffffffffffffffffffffc8301126100c6576101007fffffffffffffffffffffffffffffffffffffffffffffffffffffffffffffffdc6004359301126100c657602490565b90601f7fffffffffffffffffffffffffffffffffffffffffffffffffffffffffffffffe0910116810190811067ffffffffffffffff82111761078557604052565b7f4e487b71000000000000000000000000000000000000000000000000000000005f52604160045260245ffd5b906107c060e0820135610930565b421015610906576040906055600b83516101009081858237208451907f00000000000000000000000000000000000000000000000000000000000000008683015260208201527f000000000000000000000000000000000000000000000000000000000000000081520160ff81532073ffffffffffffffffffffffffffffffffffffffff90811630036108dd57835f5260205f206020830135036108b457916108ad60c0836108a560209660a07fe346f5c97a360db5188bfa5d3ec5f0583abde420c6ba4d08b6cfe61addc17105999701359080878501351690608085013516610977565b013533610a37565b51908152a1565b600483517fabab6bd7000000000000000000000000000000000000000000000000000000008152fd5b600483517fa269484a000000000000000000000000000000000000000000000000000000008152fd5b60046040517f6f7eac26000000000000000000000000000000000000000000000000000000008152fd5b63ffffffff8160e01c9160c01c16810180911161094a5790565b7f4e487b71000000000000000000000000000000000000000000000000000000005f52601160045260245ffd5b73ffffffffffffffffffffffffffffffffffffffff169190826109a05761099e9250610a37565b565b60445f91602093604051917fa9059cbb0000000000000000000000000000000000000000000000000000000083526004830152602482015282855af19081610a15575b50156109eb57565b60046040517ffb7f5079000000000000000000000000000000000000000000000000000000008152fd5b90503d15610a2f575060015f5114601f3d11165b5f6109e3565b3b1515610a29565b5f80809381935af13d15610ac6573d67ffffffffffffffff81116107855760405190610a8b60207fffffffffffffffffffffffffffffffffffffffffffffffffffffffffffffffe0601f8401160183610744565b81525f60203d92013e5b15610a9c57565b60046040517f8a0332d5000000000000000000000000000000000000000000000000000000008152fd5b610a9556fea26469706673582212204cdc19b866cc8b5c8a9f3e5b2f0fbe23e3769aabab762c48957d481f10655e3164736f6c63430008170033","linkReferences":{}},"methodIdentifiers":{"FACTORY()":"2dd31000","PROXY_BYTECODE_HASH()":"34862b6a","RESCUE_DELAY()":"f56cd69c","cancel((bytes32,bytes32,uint256,uint256,uint256,uint256,uint256,uint256))":"90d3252f","publicWithdraw(bytes32,(bytes32,bytes32,uint256,uint256,uint256,uint256,uint256,uint256))":"0af97558","rescueFunds(address,uint256,(bytes32,bytes32,uint256,uint256,uint256,uint256,uint256,uint256))":"4649088b","withdraw(bytes32,(bytes32,bytes32,uint256,uint256,uint256,uint256,uint256,uint256))":"23305703"},"id":3}