{"abi":[{"type":"constructor","inputs":[{"name":"factory","type":"address","internalType":"contract IEscrowFactory"},{"name":"lop","type":"address","internalType":"contract IOrderMixin"},{"name":"initialOwner","type":"address","internalType":"address"}],"stateMutability":"nonpayable"},{"type":"receive","stateMutability":"payable"},{"type":"function","name":"arbitraryCalls","inputs":[{"name":"targets","type":"address[]","internalType":"address[]"},{"name":"arguments","type":"bytes[]","internalType":"bytes[]"}],"outputs":[],"stateMutability":"nonpayable"},{"type":"function","name":"cancel","inputs":[{"name":"escrow","type":"address","internalType":"contract IEscrow"},{"name":"immutables","type":"tuple","internalType":"struct IBaseEscrow.Immutables","components":[{"name":"orderHash","type":"bytes32","internalType":"bytes32"},{"name":"hashlock","type":"bytes32","internalType":"bytes32"},{"name":"maker","type":"uint256","internalType":"Address"},{"name":"taker","type":"uint256","internalType":"Address"},{"name":"token","type":"uint256","internalType":"Address"},{"name":"amount","type":"uint256","internalType":"uint256"},{"name":"safetyDeposit","type":"uint256","internalType":"uint256"},{"name":"timelocks","type":"uint256","internalType":"Timelocks"}]}],"outputs":[],"stateMutability":"nonpayable"},{"type":"function","name":"deployDst","inputs":[{"name":"dstImmutables","type":"tuple","internalType":"struct IBaseEscrow.Immutables","components":[{"name":"orderHash","type":"bytes32","internalType":"bytes32"},{"name":"hashlock","type":"bytes32","internalType":"bytes32"},{"name":"maker","type":"uint256","internalType":"Address"},{"name":"taker","type":"uint256","internalType":"Address"},{"name":"token","type":"uint256","internalType":"Address"},{"name":"amount","type":"uint256","internalType":"uint256"},{"name":"safetyDeposit","type":"uint256","internalType":"uint256"},{"name":"timelocks","type":"uint256","internalType":"Timelocks"}]},{"name":"srcCancellationTimestamp","type":"uint256","internalType":"uint256"}],"outputs":[],"stateMutability":"payable"},{"type":"function","name":"deploySrc","inputs":[{"name":"immutables","type":"tuple","internalType":"struct IBaseEscrow.Immutables","components":[{"name":"orderHash","type":"bytes32","internalType":"bytes32"},{"name":"hashlock","type":"bytes32","internalType":"bytes32"},{"name":"maker","type":"uint256","internalType":"Address"},{"name":"taker","type":"uint256","internalType":"Address"},{"name":"token","type":"uint256","internalType":"Address"},{"name":"amount","type":"uint256","internalType":"uint256"},{"name":"safetyDeposit","type":"uint256","internalType":"uint256"},{"name":"timelocks","type":"uint256","internalType":"Timelocks"}]},{"name":"order","type":"tuple","internalType":"struct IOrderMixin.Order","components":[{"name":"salt","type":"uint256","internalType":"uint256"},{"name":"maker","type":"uint256","internalType":"Address"},{"name":"receiver","type":"uint256","internalType":"Address"},{"name":"makerAsset","type":"uint256","internalType":"Address"},{"name":"takerAsset","type":"uint256","internalType":"Address"},{"name":"makingAmount","type":"uint256","internalType":"uint256"},{"name":"takingAmount","type":"uint256","internalType":"uint256"},{"name":"makerTraits","type":"uint256","internalType":"MakerTraits"}]},{"name":"r","type":"bytes32","internalType":"bytes32"},{"name":"vs","type":"bytes32","internalType":"bytes32"},{"name":"amount","type":"uint256","internalType":"uint256"},{"name":"takerTraits","type":"uint256","internalType":"TakerTraits"},{"name":"args","type":"bytes","internalType":"bytes"}],"outputs":[],"stateMutability":"payable"},{"type":"function","name":"owner","inputs":[],"outputs":[{"name":"","type":"address","internalType":"address"}],"stateMutability":"view"},{"type":"function","name":"renounceOwnership","inputs":[],"outputs":[],"stateMutability":"nonpayable"},{"type":"function","name":"transferOwnership","inputs":[{"name":"newOwner","type":"address","internalType":"address"}],"outputs":[],"stateMutability":"nonpayable"},{"type":"function","name":"withdraw","inputs":[{"name":"escrow","type":"address","internalType":"contract IEscrow"},{"name":"secret","type":"bytes32","internalType":"bytes32"},{"name":"immutables","type":"tuple","internalType":"struct IBaseEscrow.Immutables","components":[{"name":"orderHash","type":"bytes32","internalType":"bytes32"},{"name":"hashlock","type":"bytes32","internalType":"bytes32"},{"name":"maker","type":"uint256","internalType":"Address"},{"name":"taker","type":"uint256","internalType":"Address"},{"name":"token","type":"uint256","internalType":"Address"},{"name":"amount","type":"uint256","internalType":"uint256"},{"name":"safetyDeposit","type":"uint256","internalType":"uint256"},{"name":"timelocks","type":"uint256","internalType":"Timelocks"}]}],"outputs":[],"stateMutability":"nonpayable"},{"type":"event","name":"OwnershipTransferred","inputs":[{"name":"previousOwner","type":"address","indexed":true,"internalType":"address"},{"name":"newOwner","type":"address","indexed":true,"internalType":"address"}],"anonymous":false},{"type":"error","name":"ForceApproveFailed","inputs":[]},{"type":"error","name":"InvalidLength","inputs":[]},{"type":"error","name":"LengthMismatch","inputs":[]},{"type":"error","name":"NativeTokenSendingFailure","inputs":[]},{"type":"error","name":"OwnableInvalidOwner","inputs":[{"name":"owner","type":"address","internalType":"address"}]},{"type":"error","name":"OwnableUnauthorizedAccount","inputs":[{"name":"account","type":"address","internalType":"address"}]}],"bytecode":{"object":"0x60c0346100f557601f610fbf38819003918201601f19168301916001600160401b038311848410176100f9578084926060946040528339810103126100f55780516001600160a01b03919082811681036100f55760208201519183831683036100f557604001518381168091036100f55780156100dd575f80546001600160a01b03198116831782556040519516907f8be0079c531659141344cd1fd0a4f28419497f9722a3daafe3b4186f6b6457e09080a360805260a052610eb1908161010e823960805181818161030d015261085a015260a051816104ba0152f35b604051631e4fbdf760e01b81525f6004820152602490fd5b5f80fd5b634e487b7160e01b5f52604160045260245ffdfe60406080815260048036101561001e575b5050361561001c575f80fd5b005b5f915f3560e01c80631f3177ba14610aed5780632c3c9a37146109ca578063318b0562146107f7578063715018a61461075b5780638da5cb5b1461070a57838163a4fc705a146105e557508063ca2182761461016e5763f2fde38b146100845750610010565b3461016a5760207ffffffffffffffffffffffffffffffffffffffffffffffffffffffffffffffffc36011261016a5781359173ffffffffffffffffffffffffffffffffffffffff91828416809403610166576100de610da7565b83156101375750505f54827fffffffffffffffffffffffff00000000000000000000000000000000000000008216175f55167f8be0079c531659141344cd1fd0a4f28419497f9722a3daafe3b4186f6b6457e05f80a380f35b908460249251917f1e4fbdf7000000000000000000000000000000000000000000000000000000008352820152fd5b8480fd5b8280fd5b50907ffffffffffffffffffffffffffffffffffffffffffffffffffffffffffffffffc3601916102a083126105e1576101008093126105e157827ffffffffffffffffffffffffffffffffffffffffffffffffffffffffffffffefc3601126105e1576102843567ffffffffffffffff928382116105dd57366023830112156105dd5781810135948486116105d957602494368688860101116105d557610212610da7565b8451918201908111828210176105aa57908493929184528135815260209081810197873589528582019460443586526060998a8401606435815260808501608435815260a086019160a435835260c087019960c4358b528d60e08901954260e01b7bffffffffffffffffffffffffffffffffffffffffffffffffffffffff60e4351617875273ffffffffffffffffffffffffffffffffffffffff9d51997ffb6bd47e000000000000000000000000000000000000000000000000000000008b52518c8b015251908901525160448801525160648701525160848601525160a4850152865160c48501525160e48401528a61010496858589818c7f0000000000000000000000000000000000000000000000000000000000000000165afa9485156105a0578295610564575b508180809251875af161034e610d4a565b501561053c57928895926103b160348c858f98966101a09e839d9b988f7fffffffffffffffffffffffffffffffffffffffff00000000000000000000000090519889961b1689860152018484013781018883820152036014810184520182610d09565b8851998a977ff497df750000000000000000000000000000000000000000000000000000000089526101a4948635908a0152610124908135908a0152610144803560448b015261016490813560648c015261018492833560848d0152873560a48d01526101c4988c60c48b359101528c60e46101e43591015261020435908d015261022435908c015261024435908b01527f08000000000000000000000000000000000000000000000000000000000000006102643517908a015288015280518093880152845b8381106105205750505090847fffffffffffffffffffffffffffffffffffffffffffffffffffffffffffffffe0601f84868585989786010152011681010301927f0000000000000000000000000000000000000000000000000000000000000000165af190811561051757506104ec578280f35b813d8311610510575b6104ff8183610d09565b8101031261050d575f808280f35b80fd5b503d6104f5565b513d85823e3d90fd5b8082018301518b82018601528b98508a97508c95508201610478565b8488517f8a0332d5000000000000000000000000000000000000000000000000000000008152fd5b9094508581813d8311610599575b61057c8183610d09565b810103126105955751888116810361059557938161033d565b5080fd5b503d610572565b8a513d84823e3d90fd5b856041847f4e487b71000000000000000000000000000000000000000000000000000000005f52525ffd5b8780fd5b8680fd5b8580fd5b8380fd5b80848434610706576101207ffffffffffffffffffffffffffffffffffffffffffffffffffffffffffffffffc36011261070657610620610ca5565b6101007fffffffffffffffffffffffffffffffffffffffffffffffffffffffffffffffdc3601126107015773ffffffffffffffffffffffffffffffffffffffff1691823b1561070157839082519384917f90d3252f0000000000000000000000000000000000000000000000000000000083526024359083015260443560248301526064356044830152608435606483015260a435608483015260c43560a483015260e43560c4830152818361010492833560e48401525af19081156106f857506106e85750f35b6106f190610cc8565b61050d5780f35b513d84823e3d90fd5b505050fd5b5050fd5b83823461059557817ffffffffffffffffffffffffffffffffffffffffffffffffffffffffffffffffc3601126105955773ffffffffffffffffffffffffffffffffffffffff60209254169051908152f35b833461050d57807ffffffffffffffffffffffffffffffffffffffffffffffffffffffffffffffffc36011261050d57610792610da7565b5f73ffffffffffffffffffffffffffffffffffffffff81547fffffffffffffffffffffffff000000000000000000000000000000000000000081168355167f8be0079c531659141344cd1fd0a4f28419497f9722a3daafe3b4186f6b6457e08280a380f35b5082907ffffffffffffffffffffffffffffffffffffffffffffffffffffffffffffffffc3601610120811261016a5761010013610595576101049061083a610da7565b6084359373ffffffffffffffffffffffffffffffffffffffff94858116957f000000000000000000000000000000000000000000000000000000000000000016956108858782610df7565b15610919575b508585963b156105dd57859261012491855196879485937fdea024e4000000000000000000000000000000000000000000000000000000008552803590850152602435602485015260443560448501526064356064850152608484015260a43560a484015260c43560c484015260e43560e484015280359083015234905af19081156106f857506106e85750f35b8660205f604487517f095ea7b3000000000000000000000000000000000000000000000000000000008152848882015282602482015282865af1806109a8575b15918215610996575b505061096e578661088b565b5090517f19be9a90000000000000000000000000000000000000000000000000000000008152fd5b6109a09250610df7565b158688610962565b50503d156109c0578660015f5114601f3d1116610959565b86813b1515610959565b5034610ae9576101407ffffffffffffffffffffffffffffffffffffffffffffffffffffffffffffffffc360112610ae957610a03610ca5565b6101007fffffffffffffffffffffffffffffffffffffffffffffffffffffffffffffffbc360112610ae95773ffffffffffffffffffffffffffffffffffffffff1691823b15610ae9575f9082519384917f233057030000000000000000000000000000000000000000000000000000000083526024359083015260443560248301526064356044830152608435606483015260a435608483015260c43560a483015260e43560c4830152818361010492833560e4840152610124938435908401525af1908115610ae05750610ad6575080f35b61001c9150610cc8565b513d5f823e3d90fd5b5f80fd5b509034610ae957817ffffffffffffffffffffffffffffffffffffffffffffffffffffffffffffffffc360112610ae95767ffffffffffffffff8135818111610ae957610b3c9036908401610c74565b92602491602435848111610ae957610b579036908401610c74565b939092610b62610da7565b848703610c4d575f5b878110610b7457005b8060051b808501359073ffffffffffffffffffffffffffffffffffffffff82168203610ae95787831015610c22578601357fffffffffffffffffffffffffffffffffffffffffffffffffffffffffffffffe187360301811215610ae957860190813591898311610ae957602001908236038213610ae957825f80949381948f519384928337810182815203925af1610c0a610d4a565b5015610c1857600101610b6b565b88513d5f823e3d90fd5b846032857f4e487b71000000000000000000000000000000000000000000000000000000005f52525ffd5b87517fff633a38000000000000000000000000000000000000000000000000000000008152fd5b9181601f84011215610ae95782359167ffffffffffffffff8311610ae9576020808501948460051b010111610ae957565b6004359073ffffffffffffffffffffffffffffffffffffffff82168203610ae957565b67ffffffffffffffff8111610cdc57604052565b7f4e487b71000000000000000000000000000000000000000000000000000000005f52604160045260245ffd5b90601f7fffffffffffffffffffffffffffffffffffffffffffffffffffffffffffffffe0910116810190811067ffffffffffffffff821117610cdc57604052565b3d15610da2573d9067ffffffffffffffff8211610cdc5760405191610d9760207fffffffffffffffffffffffffffffffffffffffffffffffffffffffffffffffe0601f8401160184610d09565b82523d5f602084013e565b606090565b73ffffffffffffffffffffffffffffffffffffffff5f54163303610dc757565b60246040517f118cdaa7000000000000000000000000000000000000000000000000000000008152336004820152fd5b91905f6044602092604051907f095ea7b300000000000000000000000000000000000000000000000000000000825260048201527fffffffffffffffffffffffffffffffffffffffffffffffffffffffffffffffff602482015282865af19182610e5e5750565b9091503d15610e75575060015f5114601f3d111690565b3b15159056fea26469706673582212205541be8d92a41e4a147a690cbe008c9cd0bc657784c6db10bf426d303867907c64736f6c63430008170033","linkReferences":{}},"methodIdentifiers":{"arbitraryCalls(address[],bytes[])":"1f3177ba","cancel(address,(bytes32,bytes32,uint256,uint256,uint256,uint256,uint256,uint256))":"a4fc705a","deployDst((bytes32,bytes32,uint256,uint256,uint256,uint256,uint256,uint256),uint256)":"318b0562","deploySrc((bytes32,bytes32,uint256,uint256,uint256,uint256,uint256,uint256),(uint256,uint256,uint256,uint256,uint256,uint256,uint256,uint256),bytes32,bytes32,uint256,uint256,bytes)":"ca218276","owner()":"8da5cb5b","renounceOwnership()":"715018a6","transferOwnership(address)":"f2fde38b","withdraw(address,bytes32,(bytes32,bytes32,uint256,uint256,uint256,uint256,uint256,uint256))":"2c3c9a37"},"id":57}